:020000040800F2
:1000000000000220ED2C00083D2D00083D2D0008C9
:100010003D2D00083D2D00083D2D0008000000008A
:100020000000000000000000000000003D2D00085E
:100030003D2D0008000000003D2D00083D2D00086A
:100040003D2D00083D2D00083D2D00083D2D0008E8
:100050003D2D00083D2D00083D2D00083D2D0008D8
:100060003D2D00083D2D00083D2D00083D2D0008C8
:100070003D2D00083D2D00083D2D00083D2D0008B8
:100080003D2D00083D2D00083D2D0008000000001A
:100090000000000000000000000000003D2D0008EE
:1000A0003D2D00083D2D00083D2D00083D2D000888
:1000B0003D2D00083D2D00083D2D00083D2D000878
:1000C0003D2D00083D2D00083D2D00083D2D000868
:1000D0003D2D00083D2D00083D2D000800000000CA
:1000E0003D2D00083D2D00083D2D000800000000BA
:1000F0000000000000000000000000003D2D00088E
:10010000000000003D2D00083D2D00083D2D000899
:1001100000000000000000000000000000000000DF
:100120003D2D00083D2D00083D2D00083D2D000807
:100130003D2D00080000000000000000000000004D
:100140000000000000000000000000003D2D00083D
:100150003D2D00083D2D00083D2D00083D2D0008D7
:100160003D2D00083D2D00080000000000000000AB
:10017000000000000000000000000000000000007F
:10018000000000003D2D00080000000000000000FD
:080190003D2D00083D2D000883
:1001A0000348044B834202D0034B03B11847704706
:1001B0006000002060000020000000000548064BA1
:1001C0001B1AD90F01EBA301491002D0034B03B155
:1001D0001847704760000020600000200000000009
:1001E00010B5064C237843B9FFF7DAFF044B13B17F
:1001F0000448AFF300800123237010BD600000208D
:1002000000000000402D000808B5044B1BB1044954
:100210000448AFF30080BDE80840CFE700000000CD
:1002200064000020402D000853B94AB9002908BFD6
:1002300000281CBF4FF0FF314FF0FF3000F06AB9CB
:10024000ADF1080C6DE904CE00F006F8DDF804E02D
:10025000DDE9022304B070472DE9F047089D0E4602
:1002600004460F46002B4AD194468C45B2FA82F2DE
:1002700060D942B1C2F12003974020FA03F30CFA8F
:1002800002FC1F4394404FEA1C4E1FFA8CF6B7FB4A
:10029000FEF1230C0EFB117743EA074301FB06F046
:1002A00098420AD91CEB030301F1FF3780F0158156
:1002B000984240F21281023963441B1AA4B2B3FB84
:1002C000FEF00EFB103344EA034400FB06F6A642A0
:1002D0000AD91CEB040400F1FF3380F00081A64230
:1002E00040F2FD806444023840EA0140A41B002132
:1002F0001DB1D4400023C5E90043BDE8F0878B421F
:1003000005D90DB1C5E9000100210846F5E7B3FAAA
:1003100083F1002946D1B34202D3824200F2F58034
:10032000841A66EB030201201746002DE5D0C5E9CB
:100330000047E2E7002A40F09380A1EB0C034FEA6C
:100340001C471FFA8CFE0121B3FBF7F607FB1630A2
:10035000230C43EA00430EFB06F0984208D91CEB3D
:10036000030306F1FF3802D2984200F2D0804646DD
:100370001B1AA4B2B3FBF7F007FB103344EA0344A3
:100380000EFB00FEA64508D91CEB040400F1FF3368
:1003900002D2A64500F2B6801846A4EB0E0440EA4D
:1003A0000640A5E7C1F120078B4022FA07FC4CEA82
:1003B000030C06FA01FE20FA07F426FA07F344EAD2
:1003C0000E0400FA01F84FEA1C404FEA1449B3FB4F
:1003D000F0FE1FFA8CF600FB1E3349EA03430EFBC6
:1003E00006F9994502FA01F20BD91CEB03030EF151
:1003F000FF3A80F08580994540F28280AEF1020E8E
:100400006344A3EB0909A4B2B9FBF0F300FB139911
:1004100044EA094403FB06F6A64208D91CEB04048F
:1004200003F1FF3068D2A64266D9023B644443EA36
:100430000E40A41BA0FB02E6B4427346B14652D361
:100440004FD05DB1B8EB030264EB090404FA07F77F
:1004500022FA01F31F43CC40C5E9007400214CE7A8
:10046000C2F1200120FA01F30CFA02FC26FA01F194
:10047000964033434FEA1C471FFA8CFEB1FBF7F05E
:1004800007FB1016190C41EA064100FB0EF68E42DE
:1004900004FA02F408D91CEB010100F1FF382DD257
:1004A0008E422BD902386144891B9BB2B1FBF7F60F
:1004B00007FB161143EA014306FB0EF1994208D9E6
:1004C0001CEB030306F1FF3814D2994212D9023E05
:1004D00063445B1A46EA004136E73946EDE61846C2
:1004E00002E7F045ADD2BEEB020366EB0C06013825
:1004F000B146A6E74646ECE7034698E74046D3E711
:10050000D6467EE76444023847E708460DE7023ED8
:1005100063442DE7704700BF70B50F4B0F4DAB42E2
:10052000A3EB050607D0B610002455F8043B0134B0
:100530009847A642F9D802F003FC094D094B5E1B0F
:10054000AB424FEAA60606D0002455F8043B01341E
:100550009847A642F9D870BD282E0008282E00081A
:10056000282E00082C2E0008830730B547D0541ED3
:10057000002A3ED0CAB2034601E0013C39D303F859
:10058000012B9D07F9D1032C2CD9CDB205EB052504
:100590000F2C05EB054535D9A4F1100222F00F0C04
:1005A00003F1100EE6444FEA121C1A46C2E9005548
:1005B000C2E9025510327245F8D10CF1010214F073
:1005C0000C0F03EB021204F00F0C13D0ACF1040378
:1005D00023F003030433134442F8045B9342FBD13A
:1005E0000CF003042CB1C9B21C4403F8011BA34254
:1005F000FBD130BD64461346002CF4D1F9E7034625
:100600001446C0E71A46A446E0E700BF014B18684D
:10061000704700BF000000200EB400B582B003ABED
:10062000816853F8042B019300F060F802B05DF884
:1006300004EB03B0704700BF0FB400B5074983B0A7
:1006400004AB086853F8042B8168019300F04EF85E
:1006500003B05DF804EB04B0704700BF0000002059
:100660009368013B002B936011DA10B49469A342A4
:1006700009DB0A2907D01368581C10601970084656
:100680005DF8044B70475DF8044B00F073B91368D4
:10069000581C106019700846704700BF9BB1F8B530
:1006A000134406460F46541E5D1E01E0AC4208D0BE
:1006B00014F8011F3A463046FFF7D2FF431CF5D12C
:1006C000F8BD0020F8BD0020704700BF936810B54A
:1006D00014461BB918460023636010BD00F09AF958
:1006E0000023A3600023636010BD00BF2DE9F04F1D
:1006F000A1B08B4691461C46049018B1036A002BAA
:1007000000F01C81BBF80C30180740F19580DBF835
:100710001030002B00F090800023CA460D9343F266
:100720002003ADF839309AF80030864E079401273F
:10073000002B79D0D14604E019F8013F002B00F0DE
:100740008580252BF8D1B9EB0A0840F0828099F812
:100750000030002B68D000234FF0FF32CDE9092391
:1007600009F1010908930B938DF863301E9305E09E
:10077000089A07FA03F31A430892A1464C46052249
:1007800014F8011B304600F053FEA246831B0028DC
:10079000EED1089BD90644BF20228DF8632099F83A
:1007A00000101A0744BF2B228DF863202A2966D136
:1007B000079A1168043200290792C0F29A800B91BF
:1007C00099F801102E2970D05F4C0322204600F0CA
:1007D0002FFE38B1089B001B4022824013430AF1D0
:1007E000010A08931AF8011B58488DF838100622A0
:1007F00000F01EFE002800F08280554B002B69D0CF
:1008000007AA0092534B04985A4608A9AFF30080F8
:100810000390039B013307D00D9B039A13440D9360
:100820009AF80030002B85D1BBF80C305B060AD457
:100830000D9821B0BDE8F08F0498594600F048FEAD
:1008400000283FF469AF4FF0FF30F2E7B9EB0A0838
:10085000EAD00AF1FF35CDF81490A946049D01E0D5
:10086000A0453ED94C465A4619F8011F2846FFF7C5
:10087000F7FE02340130A4EB0A04F1D1D4E7A1F170
:100880003002092A88BFCA469CD80B9B00E001347D
:10089000217803EB830302EB4303A1F13002092A21
:1008A000F5D92E290B93A2468ED19AF801102A2948
:1008B0002FD1079B9AF802101A6809920433002A74
:1008C0000AF102000793B8BF4FF0FF338246B8BF6A
:1008D000099379E7079B073323F00703083307934E
:1008E0009AE70D99DDF81490414499F800300D9184
:1008F0002FE7494243F002030B91089360E707AAF0
:100900000092144B04985A4608A900F0A1FF0390E6
:100910007FE7A1F130020023092A09930AF1010AB5
:100920003FF652AF1AF8011F03EB830302EB4303B8
:10093000A1F13002092AF5D9099345E700F0D4FA6C
:10094000E0E600BFE42D0008EC2D0008F02D0008C3
:10095000000000009D06000810B4054C84461346B4
:1009600020685DF8044B0A466146FFF7BFBE00BF32
:1009700000000020F8B50D461446064610B1036A83
:10098000002B37D0A389A269A2601A0719D5236961
:10099000BBB122686169D31AEDB299422F4620DDBE
:1009A0000133A1680139A160511C21601570626991
:1009B0009A420DD0A389DB0701D50A2D08D038460D
:1009C000F8BD2146304600F083FD38B92369E0E7E1
:1009D0002146304600F042FB0028F0D04FF0FF37B0
:1009E000EDE72146304600F039FB0028F6D12268B9
:1009F0000123D6E700F078FAC4E700BF10B4044C36
:100A000003460A4620685DF8044B1946FFF7B2BF5B
:100A1000000000209368002B00F0F8802DE9F04FD3
:100A2000B1F90CC01CF0080F83B0904681460C460B
:100A300031D00B697BB31CF00207D8F8006038D0C6
:100A40000027D4F828B0216ADFF8C4A23D465545F6
:100A50002B463A4628BF53464846C5B1D8470028DA
:100A600040F3CA80D8F808301B1A07442D1AC8F87A
:100A70000830002B00F0B68055452B46D4F828B03E
:100A8000216A28BF53463A464846002DE6D1D6E9AA
:100A900000750836DBE72146484600F019FD0028BE
:100AA00040F0AF80B4F90CC0D8F800601CF0020729
:100AB000C6D11CF0010A63D12368A16857461846C5
:100AC0008B46002F58D01CF4007F00F0B580B9424F
:100AD0000A4600F2E1801CF4906F2FD02169626910
:100AE0005D1A02EB420202EBD2726B1C52103B44C5
:100AF000934292BF93469B461A461CF4806F00F0C7
:100B0000EA801146484600F00FFB002800F0F9800B
:100B10002A462169009000F03DFDA289009B22F445
:100B2000906242F08002A2815819ABEB0505C4F82F
:100B300014B02361A5602060BB463A46514600923E
:100B400000F0D0FBA1682368009AA1EB0B011A44C6
:100B50003D46A16022600027D8F808305B1BAA44FC
:100B6000C8F80830002B3DD02368A168B4F90CC048
:100B700018468B46002FA6D1D6E900A708369EE777
:100B80003846BB463D460097002D41D0002846D050
:100B9000009A2068A168D4E90473AA4228BF2A46B3
:100BA000B84204D901EB030A524500F38580934211
:100BB00075DC216AA76A5A464846B847B0F1000A70
:100BC0001ADD009BB3EB0A0300930FD00120D8F885
:100BD0000830A3EB0A03D344A5EB0A05C8F8083094
:100BE000002BD1D1002003B0BDE8F08F214648464C
:100BF00000F034FA0028EAD0B4F90C3043F0400396
:100C0000A3814FF0FF3003B0BDE8F08F00207047A4
:100C1000756833460836002DFAD0D3F800B02A465E
:100C20000A21584600F004FC002867D00130A0EBF0
:100C30000B0300931A46ACE722699A4214D3626907
:100C4000BA4211D86FF00043BB4228BF3B46A56AA9
:100C500093FBF2F3216A02FB03F348465246A8478E
:100C6000051EC9DD7F1B77E7B94228BF39460D460F
:100C700018460A46514600F035FBA1682368491B17
:100C80002B44A16023600029ECD12146484600F0A6
:100C9000E5F90028E6D0AFE7BB463A464EE75946AD
:100CA000019200F01FFB019AA3689B1AA3602368BE
:100CB00013442360924684E75946524600F012FBE3
:100CC0002368534423602146484600F0C7F90028B2
:100CD0003FF477AF90E7484600F0F6FC0346002863
:100CE0007FF422AF2169484600F09EFAB4F90C3037
:100CF0000C22C9F8002023F080037FE76A1C0092D1
:100D000047E70C22B4F90C30C9F8002076E700BFA1
:100D100000FCFF7F00207047024A0349034800F0AF
:100D200061BB00BF500000205D10000804000020DF
:100D30000C4B4168994210B5044601D000F08EF981
:100D4000A168094B994202D0204600F087F9E1687A
:100D5000064B994204D02046BDE8104000F07EB911
:100D600010BD00BF7C000020E40000204C010020EA
:100D7000002070472DE9F8432A4C2B49DFF8BC903E
:100D8000DFF8BC80294FC4F838110025042308225D
:100D9000294604F15C00264EE360C4E90055C4E92D
:100DA0000455A5606566A561FFF7DEFB214B63670F
:100DB0000822294604F1C400C4E90849C4E90A87A5
:100DC000C4E91A55C4E91E552567C4F8CC50C4F8C7
:100DD00080502663FFF7C8FB174BC4F8DC30294668
:100DE00004F16803082204F59670C4F88830C4E959
:100DF0002398C4E92576C4E93455C4E93855C4F8C4
:100E0000D850C4F83451C4F8E850FFF7ADFB04F1F2
:100E1000D003C4E93D98C4E93F76C4F8F030BDE89A
:100E2000F88300BF7C000020190D0008A11C0008F9
:100E3000C51C00080900010012000200391C00084E
:100E4000611C0008F8B5254BD3F838310646002B55
:100E50003CD0234FD7E90134013B04D51DE05A1C97
:100E600004F1680419D0B4F90C50013B002DF6D1FF
:100E70001C4BE360C4E90155C4E90455656625606F
:100E8000A5610822294604F15C00FFF76DFBC4E967
:100E90000D55C4E912552046F8BD3D680DB12F46E9
:100EA000D8E74FF4D671304600F03EF9044680B1E1
:100EB0000423C0E900530C302946A0604FF4D072DF
:100EC0002546FFF751FB3C602F46C3E7FFF752FF73
:100ED000BFE70C2338603360DDE700BF7C000020F3
:100EE000500000200100FFFF036A03B17047044B6C
:100EF000044AD3F838310262002BF7D13AE700BF39
:100F00007C000020310D0008704700BF704700BF13
:100F1000024A0349002000F065BA00BF50000020DB
:100F2000150D0008024A0349002000F05BBA00BF1B
:100F300050000020710D0008B1F90C302DE9F0418E
:100F40001E070C4680463DD44A68002A56DDE56AF5
:100F5000002D34D00022D8F80060C8F8002013F427
:100F60008052216A57D101234046A847451C0246BA
:100F700066D0B4F90C30E56A216A580705D5636874
:100F8000D21A636B0BB1236CD21A00234046A847D8
:100F9000431C42D00023636023692360A389DF04DC
:100FA00000D56065616BC8F8006041B104F144038D
:100FB000994202D0404600F037F9002363630020D5
:100FC000BDE8F0810E69002EF9D09B070D6808BFBF
:100FD0004B690E6018BF0023AD1B8B600BE02B46E6
:100FE0003246216AA76A4046B847B0F1000CA5EB2B
:100FF0000C05664406DD002DF1DCE0E70A6C002AF2
:10100000A5DCDCE7B4F90C3043F04003A3814FF0DA
:10101000FF30BDE8F081626DAFE7D8F80010B4F999
:101020000C301D29F0D80C4ACA40D507ECD52269EE
:10103000226000226260DA04B4D50029B1D0B1E7A1
:10104000D8F80030002B94D01D2B01D0162BD9D10D
:10105000C8F80060B3E700BF010040200B69B3B1DE
:1010600010B5044682B008B1036A5BB1B1F90C3027
:1010700013B9002002B010BD204602B0BDE81040F8
:10108000FFF75ABF0191FFF72FFF0199EEE700200C
:10109000704700BFB8B138B50D4A036915680446FA
:1010A0002BB10DB12B6A53B1B4F90C300BB9002040
:1010B00038BD21462846BDE83840FFF73DBF2846E9
:1010C000FFF712FFF0E7034A0349044800F08AB92A
:1010D00000000020500000205D10000804000020E7
:1010E00070B5104E336805460C46B3B1214628460C
:1010F00000F090FD431C0CD0C41C24F00304A0425B
:1011000005D0211A284600F085FD013001D0204687
:1011100070BD4FF0FF34204670BD194600F07AFDD7
:101120003060E3E7B80100202DE9F843CD1C25F03D
:10113000030508350C2D38BF0C25002D064618DB9D
:10114000A94216D8DFF8DC8000F0C4FCD8F80420EF
:10115000A2B1144603E0636822467BB11C462368B3
:101160005B1BF8D40B2B1FD89442636854D0536098
:101170000CE00C2333600020BDE8F883294630469C
:10118000FFF7AEFF431C044619D00560304600F05F
:10119000A3FC04F10B00231D20F00700C21A1CBFA2
:1011A0001B1AA350BDE8F88361199442256014BF4F
:1011B0005160C8F80410635163684B60E6E7D8F8E3
:1011C00004701FB33C467F68002FFBD1236839466B
:1011D000304604EB030900F01DFD814516D123685C
:1011E000ED1A29463046FFF77BFF01300ED0236809
:1011F000D8F804202B442360536883B1A34203D062
:101200001A465B689C42FBD10023B0E70C23336095
:10121000304600F061FCAEE7C8F80430B6E7C8F825
:101220000470B3E7B8010020002950D038B551F858
:10123000043C0C1F002BB8BFE418054600F04AFC24
:10124000274A13682BB1A3420CD921686018834246
:101250002CD0636028461460BDE8384000F03CBCE8
:10126000A3420FD81A465B68002BF9D111685018B9
:10127000844217D02CD3636054602846BDE83840C0
:1012800000F02ABC11685018A04214D020D8216860
:1012900060188342EFD118685B680844C4E9000312
:1012A0005460EAE723680B441360E6E718685B685C
:1012B00008442060CDE72068014450188342116043
:1012C000DBD1D3E900040144C2E90014D5E770473B
:1012D0000C232B602846BDE8384000F0FDBB00BF62
:1012E000BC01002088420ED98B1883420BD900EB39
:1012F000020C002A6ED0624613F801CD02F801CD2F
:101300009942F9D170470F2A0FD8034602F1FF3CEA
:10131000002A5FD00CF1010C013B8C4411F8012B29
:1013200003F8012F6145F9D1704740EA01039B079B
:1013300051D1A2F1100370B501F1200C23F00F057B
:1013400001F1100E00F11004AC441B095EF8105CB2
:1013500044F8105C5EF80C5C44F80C5C5EF8085CC9
:1013600044F8085C5EF8045C44F8045C0EF1100E6E
:10137000E64504F11004E9D1013312F00C0F01EB42
:10138000031102F00F0400EB031328D0043C24F0F7
:1013900003064FEA940C1E441C1F8E465EF8045B45
:1013A00044F8045FB442F9D10CF1010402F00302E5
:1013B00003EB840301EB840102F1FF3C4AB10CF121
:1013C000010C013B8C4411F8012B03F8012F6145FE
:1013D000F9D170BD704702F1FF3C03469AE72246FF
:1013E000EAE700BF2DE9F8430746884616464FF066
:1013F0000009D6E90154013D10D4A389012B08D975
:10140000B4F90E3001332146384602D0C04749EACC
:101410000009013D6B1C04F16804EED13668002E12
:10142000E7D14846BDE8F883000000000000000056
:1014300001F0FF01102A2BDB10F0070F08D010F885
:10144000013B013A8B422DD010F0070F42B3F6D189
:10145000F0B441EA012141EA014122F007047FF0A2
:1014600000070023F0E80256083C85EA010586EAF9
:10147000010685FA47F5A3FA87F586FA47F6A5FA35
:1014800087F68EB9EED1F0BC01F0FF0102F0070241
:1014900032B110F8013B013A83EA010313B1F8D1EC
:1014A0000020704701387047002D06BF35460338CD
:1014B000073815F0010F07D1013015F4807F02BF06
:1014C000013015F4C03F0130F0BC0138704700BF57
:1014D00038B52F4B1B6805460C4613B11A6A002A13
:1014E0004BD0B4F90C3018071CD5226922B313F085
:1014F000010107D0616900204942A060A1613AB1B1
:10150000002038BD980758BF6169A160002AF7D153
:10151000190658BF1046F4D543F04003A3814FF09D
:10152000FF3038BDD9062CD55A0712D4226943F0B2
:101530000803A381002ADAD103F42071B1F5007FFA
:10154000D5D02146284600F0C9FAB4F90C302269FA
:10155000CDE7616B51B104F14402914204D02846B9
:10156000FFF762FEB4F90C300022626322690021A9
:10157000C4E9002123F02403D9E71846FFF7B4FC9F
:10158000AFE7092243F040032A60A381C7E700BF09
:1015900000000020844641EA000313F003036DD1EC
:1015A000403A41D351F8043B40F8043B51F8043B26
:1015B00040F8043B51F8043B40F8043B51F8043B2D
:1015C00040F8043B51F8043B40F8043B51F8043B1D
:1015D00040F8043B51F8043B40F8043B51F8043B0D
:1015E00040F8043B51F8043B40F8043B51F8043BFD
:1015F00040F8043B51F8043B40F8043B51F8043BED
:1016000040F8043B51F8043B40F8043B51F8043BDC
:1016100040F8043B51F8043B40F8043B51F8043BCC
:1016200040F8043B403ABDD2303211D351F8043B6C
:1016300040F8043B51F8043B40F8043B51F8043BAC
:1016400040F8043B51F8043B40F8043B103AEDD21B
:101650000C3205D351F8043B40F8043B043AF9D26C
:10166000043208D0D2071CBF11F8013B00F8013B3F
:1016700001D30B8803806046704700BF082A13D34C
:101680008B078DD010F003038AD0C3F10403D21A64
:10169000DB071CBF11F8013B00F8013B80D331F898
:1016A000023B20F8023B7BE7043AD9D3013A11F818
:1016B000013B00F8013BF9D20B7803704B78437083
:1016C0008B788370604670472DE9F041144641B332
:1016D0000AB306460D4600F0F9FA8442074602D8DE
:1016E000B4EB500F13D821463046FFF71DFD80465E
:1016F00050B1BC422246294628BF3A46FFF74AFF6E
:1017000029463046FFF790FD4046BDE8F081A846E7
:101710004046BDE8F081A046FFF786FD4046BDE8A3
:10172000F081BDE8F0411146FFF7FEBC2DE9F84F0E
:1017300092461F460A698B68DDF828909A42B8BF26
:101740001A46CAF8002091F843300C46064613B1F9
:101750000132CAF80020226891065FD5DAF800301D
:101760000233CAF80030226812F0060F11461DD16C
:10177000E1689942D8BF114618DD4FF0000804F126
:10178000190B05E0E568DAF80030ED1A45450CDD87
:1017900001235A4639463046C847013008F101084E
:1017A000F0D14FF0FF30BDE8F88F216894F8433056
:1017B000003B18BF01238A060AD5E1185A1C3020C5
:1017C00081F84300224494F8451082F84310023314
:1017D00004F1430239463046C8470130E1D023685E
:1017E000DAF80050216903F00603042BD4E9022043
:1017F0001BD08A4220DD4FF00008521A90441A3460
:10180000002501E0454517DA0123224639463046D6
:10181000C847013005F10105F4D1C2E712F0060F07
:101820000DD0003B18BF0123D2E7401B8A4220EABB
:10183000E078E2DC0028E2DC0020BDE8F88FE16817
:10184000DAF800309942D8BF114696DCAEE700BF07
:101850002DE9F047174684B00A7E0C9D0C460646DB
:10186000984601F1430C002A35D0A2F15803D9B2B1
:10187000202969D8202B67D8DFE813F0E60066003E
:101880006600660066006600660066006600660028
:101890006600AC00700066006600660066007000BE
:1018A000660066006600660021008300C6006600D0
:1018B0006600B6006600830066006600EC002B68D8
:1018C00022686169181D286010061B6802D4520640
:1018D00000F1E08019600023E1462361CDF800802B
:1018E0003B4603AA21463046FFF720FF013020D0B7
:1018F00023694A4639463046C047013019D023682B
:10190000E068DDF80C909B0718D5484516DD0025EA
:1019100004F1190A04E0E068A0EB0903AB420DDD15
:101920000123524639463046C047013005F10105D2
:10193000F1D14FF0FF3004B0BDE8F0874845B8BFA3
:10194000484604B0BDE8F08784F84220012004F145
:1019500042090023206184F84330BFE72A682368E6
:10196000111D1806296002D4590600F195801068EF
:10197000014600286268C0F2938054484FF00A0E76
:1019800015E020682B6810F0800F53F8041B02D17B
:10199000400648BF89B26F2A4C482B6014BF4FF0F5
:1019A0000A0E4FF0080E0023626884F84330002AC4
:1019B000A26051DB236823F00403236000294BD18C
:1019C000002A7BD1E146BEF1080F56D0ACEB0903EB
:1019D000236183E72B681A6804332B6004F1420902
:1019E00084F842200120B4E72B686268191D296041
:1019F000D3F8009000214846FFF71AFD002863D075
:101A0000A0EB09006060A4E7236843F02003236093
:101A100078222F4884F845202A6813F0800F52F866
:101A2000041B03D113F0400F18BF89B22A60DA07F4
:101A300044BF43F02003236019B9236823F0200337
:101A400023604FF0100EAEE7582384F845301F484E
:101A50002368E1E72368DBE77546E146B1FBF5F370
:101A600005FB131A0A46AA4210F80A1009F8011DCC
:101A70001946F3D2BEF1080FA8D12368DD07A5D51A
:101A8000626823699A42A1DC302309F8013C09F11C
:101A9000FF399BE719801EE7B2F90010084668E796
:101AA0002D20002AA26084F8430002DB23F0040307
:101AB00023600A2505484942AE46CEE7037884F8FC
:101AC000423004F142097EE7606842E7F82D0008E1
:101AD0000C2E0008704700BF704700BF70B5B1F909
:101AE0000C300C46990796B007D504F14703012244
:101AF000C4E90432236016B070BDB4F90E10002999
:101B0000054629DB6A4600F011F9002822DB4FF474
:101B100080612846019EFFF707FB88B3A3892060F8
:101B200043F0800306F47046A381B6F5005F4FF4DE
:101B30008063C4E90403DED1B4F90E10284600F036
:101B400057F80028D7D0A38923F0030343F00103FB
:101B5000A381D0E7B4F90C3013F0800F14BF4026F6
:101B60004FF4806631462846FFF7DEFA40B1A3897C
:101B7000206043F08003C4E90406A38116B070BD61
:101B8000B4F90C309A05B6D423F0030304F14702EC
:101B900043F002030121C4E90421A3812260AAE7E2
:101BA00070B50C46B1F90E10002996B015461E46C8
:101BB0000FDB6A4600F0BAF800280ADB019B03F449
:101BC0007043A3F50053B3FA83F34FF480625B09CB
:101BD00008E0A28912F0800F4FF0000314BF4022EA
:101BE0004FF48062002033602A6016B070BD00BFE1
:101BF00038B5074D0022044608462A6000F011F966
:101C0000431C00D038BD2B68002BFBD0236038BDAF
:101C1000C001002038B5074D0022044608462A605E
:101C200000F018F9431C00D038BD2B68002BFBD006
:101C3000236038BDC001002010B50C46B1F90E106C
:101C400000F05EF8002803DB636D0344636510BD9C
:101C5000A38923F48053A38110BD00BF00207047E7
:101C60002DE9F0410C46B1F90C101F46CB05054695
:101C700016460BD421F48051A1813B46B4F90E10D5
:101C800032462846BDE8F04100F07CB8B4F90E10A9
:101C90000223002200F060F8B4F90C10EAE700BF5C
:101CA00010B50C46B1F90E1000F056F8B4F90C302E
:101CB000421C0EBF23F4805343F480536065A3811C
:101CC00010BD00BFB1F90E1000F008B851F8043C87
:101CD000181F002BBCBF0B58C018704738B5074DF4
:101CE0000022044608462A6000F07FF8431C00D01A
:101CF00038BD2B68002BFBD0236038BDC00100200D
:101D000038B50C46084D8446114620461A46002335
:101D10002B60644600F04CF8431C00D038BD2B68A3
:101D2000002BFBD0236038BDC001002070B50C46ED
:101D3000084D03460026204611461C462E6000F042
:101D400060F8431C00D070BD2B68002BFBD02360D3
:101D500070BD00BFC001002038B50C46084D844658
:101D6000114620461A4600232B60644600F064F8B2
:101D7000431C00D038BD2B68002BFBD0236038BD3E
:101D8000C001002038B50C46084D84461146204657
:101D90001A4600232B60644600F0BEFE431C00D0B0
:101DA00038BD2B68002BFBD0236038BDC00100205C
:101DB00080B586B000AFF860B9607A6000237B61BF
:101DC0000AE0AFF300800146BB685A1CBA60CAB291
:101DD0001A707B6901337B617A697B689A42F0DB18
:101DE0007B6818461837BD4680BD80B483B000AF0D
:101DF00078604FF0FF3318460C37BD465DF8047B22
:101E0000704780B483B000AF786039603B684FF4AE
:101E100000525A60002318460C37BD465DF8047B1B
:101E2000704780B483B000AF7860012318460C3748
:101E3000BD465DF8047B704780B485B000AFF860A4
:101E4000B9607A60002318461437BD465DF8047BFC
:101E50007047000080B586B000AF7860144A154B1B
:101E6000D31A7B617B693B61134B1B68002B02D14A
:101E7000114B124A1A60104B1A687B6813443A6976
:101E80009A4207D2FEF7C2FB03460C221A604FF0BB
:101E9000FF3309E0084B1B68FB60074B1A687B683F
:101EA0001344054A1360FB6818461837BD4680BDC9
:101EB0000000022000040000C401002000020020F5
:101EC00080B483B000AF786000E000BF7B685A1E2A
:101ED0007A60002BF9D100BF00BF0C37BD465DF81A
:101EE000047B704780B500AF00F00CF80348FEF7A4
:101EF000A3FB0348FFF7E4FF00BFF7E7582D0008F6
:101F000000093D0080B500AF00F02AF800BF80BD99
:101F1000B0B584B004AF074C6D4604F110030FCB8D
:101F200085E80F0094E80F0000F050F900BFBD46AF
:101F3000B0BD00BF682D000890B585B004AF074B59
:101F40006C4603F1100207CA84E807000FCB00F0CB
:101F5000CBFD00BF0437BD4690BD00BF882D0008F3
:101F600080B500AFFFF7D4FFFFF7E6FF00F0FAFD02
:101F700000BF80BD80B485B000AF7860084B1A6C9C
:101F800007497B6813430B64054B1A6C7B6813404D
:101F9000FB60FB6800BF1437BD465DF8047B7047EB
:101FA0000038024080B483B000AF7860064B1B68F5
:101FB00023F4404204497B6813430B6000BF0C3795
:101FC000BD465DF8047B70470070004080B400AFF0
:101FD000074B5B6803F48043B3F5804F0CBF0123CC
:101FE0000023DBB21846BD465DF8047B704700BF96
:101FF0000070004080B400AF054B1B68044A43F0FA
:102000000103136000BFBD465DF8047B704700BF4D
:102010000038024080B400AF064B1B6803F0020397
:10202000022B0CBF01230023DBB21846BD465DF82E
:10203000047B70470038024080B483B000AF786002
:10204000064B9B6823F0030204497B6813438B60B3
:1020500000BF0C37BD465DF8047B70470038024076
:1020600080B400AF044B9B6803F00C031846BD46D8
:102070005DF8047B704700BF0038024080B483B035
:1020800000AF7860064B9B6823F0F00204497B6840
:1020900013438B6000BF0C37BD465DF8047B70476F
:1020A0000038024080B483B000AF7860064B9B6874
:1020B00023F4E05204497B6813438B6000BF0C3764
:1020C000BD465DF8047B70470038024080B483B0A1
:1020D00000AF7860064B9B6823F4604204497B683C
:1020E00013438B6000BF0C37BD465DF8047B70471F
:1020F0000038024080B400AF054B1B68044A43F02F
:102100008073136000BFBD465DF8047B704700BF5D
:102110000038024080B400AF074B1B6803F0007327
:10212000B3F1007F0CBF01230023DBB21846BD468C
:102130005DF8047B704700BF0038024080B485B072
:1021400000AFF860B9607A603B600D4B5A680D4B88
:102150001340F968BA6811437A6892010A43084942
:1021600013434B60064B5B6823F4403204493B68E1
:1021700013434B6000BF1437BD465DF8047B7047C6
:10218000003802400080BFFF80B483B000AF7860A9
:10219000064B1B6823F0070204497B6813430B605E
:1021A00000BF0C37BD465DF8047B7047003C024021
:1021B00080B400AF044B1B6803F007031846BD460C
:1021C0005DF8047B704700BF003C024084B080B5DE
:1021D00000AF07F1080C8CE80F00FFF70BFF00BF02
:1021E000FFF718FF0346002BFAD04FF08050FFF79F
:1021F000C1FEBB681846FFF7D5FEFB681846FFF71F
:10220000C3FF00BFFFF7D4FF0246FB689A42F9D133
:1022100039697A69BB690020FFF790FFFFF76AFF11
:1022200000BFFFF777FF0346002BFAD000BFFFF790
:10223000CDFE0346002BFAD0FB691846FFF71EFFC0
:102240003B6A1846FFF72EFF7B6A1846FFF73EFFF2
:102250000220FFF7F1FE00BFFFF702FF0346082B45
:10226000FAD100F0C3FC00BFBD46BDE8804004B019
:10227000704780B48BB000AFF860B9607A60FB68DB
:102280001A68BB687B617B6993FAA3F33B613B6986
:10229000BB61BB69002B01D1202303E0BB69B3FA0A
:1022A00083F3DBB25B00032101FA03F3DB431A4043
:1022B000BB683B623B6A93FAA3F3FB61FB697B62F9
:1022C0007B6A002B01D1202303E07B6AB3FA83F3FE
:1022D000DBB25B00796801FA03F31A43FB681A600A
:1022E00000BF2C37BD465DF8047B704780B48BB0CF
:1022F00000AFF860B9607A60FB681A6ABB687B61FE
:102300007B6993FAA3F33B613B69BB61BB69002B1B
:1023100001D1202303E0BB69B3FA83F3DBB29B0056
:102320000F2101FA03F3DB431A40BB683B623B6AAF
:1023300093FAA3F3FB61FB697B627B6A002B01D1FB
:10234000202303E07B6AB3FA83F3DBB29B00796856
:1023500001FA03F31A43FB681A6200BF2C37BD462B
:102360005DF8047B704780B48BB000AFF860B96053
:102370007A60FB685A6ABB681B0A7B617B6993FAC7
:10238000A3F33B613B69BB61BB69002B01D12023F7
:1023900003E0BB69B3FA83F3DBB29B000F2101FAC0
:1023A00003F3DB431A40BB681B0A3B623B6A93FAA8
:1023B000A3F3FB61FB697B627B6A002B01D12023C5
:1023C00003E07B6AB3FA83F3DBB29B00796801FA1E
:1023D00003F31A43FB685A6200BF2C37BD465DF811
:1023E000047B704780B483B000AF78607B68DB68A3
:1023F00043F400527B68DA6000BF0C37BD465DF8DD
:10240000047B704780B489B000AF786039607B6826
:102410000C33FB60FB6853E8003FBB60BB6823F0F4
:102420000C033A681343FB617B680C33FA69BA61A9
:102430007B617969BA6941E800233B613B69002B04
:10244000E5D100BF00BF2437BD465DF8047B70476F
:1024500080B483B000AF786039607B68DB6823F4B8
:10246000C0623B681A437B68DA6000BF0C37BD4628
:102470005DF8047B704780B483B000AF786039604A
:102480007B68DB6823F480523B681A437B68DA6020
:1024900000BF0C37BD465DF8047B704780B483B045
:1024A00000AF786039607B681B6923F440523B6859
:1024B0001A437B681A6100BF0C37BD465DF8047B88
:1024C000704700002DE9B04FC0B000AFC7F8FC0066
:1024D000C7F8F810C7F8F420C7F8F030D7F8F43090
:1024E000B3F5004F40F00C81D7F8F8300022C7F860
:1024F000E830C7F8EC20D7E93A4522462B46911838
:1025000039665B417B66D7E91823214612EB010847
:10251000294643EB01094FF000024FF000034FEA58
:10252000C90343EA58734FEAC802904699462346C6
:1025300018EB0303C7F8E0302B4649EB0303C7F859
:10254000E430D7F8F03000229A4693461AEB0A039B
:10255000BB654BEB0B03FB65D7E91623D7E93801C5
:10256000FDF762FE02460B46644BA3FB02235B09A8
:102570009BB21B019CB2D7F8F8300022C7F8D830C4
:10258000C7F8DC20D7E9368942464B4691183965B1
:102590005B417B65D7E9142341465118B96449462C
:1025A0004B41FB644FF000024FF00003D7E912AB40
:1025B0005946CB00514643EA51735146CA00104672
:1025C0001946034642469B18C7F8D0304B460A4688
:1025D00042EB0303C7F8D430D7F8F0300022C7F835
:1025E000C830C7F8CC20D7E932120B46DB183B6461
:1025F000134642EB03037B64D7E91023D7E9340188
:10260000FDF712FE02460B4611463C4BA3FB01238D
:102610005B09642202FB03F3CB1ADB0003F13202F5
:10262000364BA3FB02235B099BB25B009BB203F416
:10263000F8739BB223449CB2D7F8F8300022C7F855
:10264000C030C7F8C420D7E9308942464B469118BC
:10265000B9635B41FB63D7E90E23414651183963E7
:1026600049464B417B634FF000024FF00003D7E92E
:102670000CAB5946CB00514643EA51735146CA0050
:1026800010461946034642469B18C7F8B8304B46D9
:102690000A4642EB0303C7F8BC30D7F8F0300022FB
:1026A000C7F8B030C7F8B420D7E92C120B46DB18B6
:1026B000BB62134642EB0303FB62D7E90A23D7E967
:1026C0002E01FDF7B1FD02460B460C4BA3FB021396
:1026D0005B09642101FB03F3D31ADB003233074AA1
:1026E000A2FB03235B099BB203F007039BB22344C5
:1026F0009BB21A46D7F8FC309A6008E11F85EB516F
:10270000D7F8F8300022C7F8A830C7F8AC20D7E9CE
:102710002A8942464B46911839625B417B62D7E970
:10272000082341465418494643EB01054FF0000287
:102730004FF00003EB0043EA5473E20014461D46D9
:102740004346E318C7F8A0304B4645EB0303C7F8F0
:10275000A430D7F8F0300022C7F89830C7F89C2092
:102760004FF000024FF00003D7E9264529468B00C1
:10277000214643EA917321468A00D7E92801FDF7F3
:1027800053FD02460B46654BA3FB02235B099BB23C
:102790001B019CB2D7F8F8300022C7F89030C7F878
:1027A0009420D7E9248942464B469118B9615B4190
:1027B000FB61D7E9062341465118396149464B412F
:1027C0007B614FF000024FF00003D7E904AB59469C
:1027D000CB00514643EA51735146CA001046194690
:1027E000034642469B18C7F888304B460A4642EBE0
:1027F0000303C7F88C30D7F8F0300022C7F88030D8
:10280000C7F884204FF000024FF00003D7E9208979
:1028100049468B00414643EA917341468A00D7E915
:102820002201FDF701FD02460B4611463B4BA3FB7F
:1028300001235B09642202FB03F3CB1A1B01323331
:10284000364AA2FB03235B099BB203F0F0039BB261
:1028500023449CB2D7F8F8300022BB67FA67D7E967
:102860001E8942464B469118B9605B41FB60D7E92F
:10287000022341465118396049464B417B604FF075
:1028800000024FF00003D7E900AB5946CB00514698
:1028900043EA51735146CA00104619460346424660
:1028A0009B183B674B460A4642EB03037B67D7F80E
:1028B000F0300022BB66FA664FF000024FF00003D2
:1028C000D7E91A8949468B00414643EA917341464C
:1028D0008A00D7E91C01FDF7A7FC02460B460F4B07
:1028E000A3FB02135B09642101FB03F3D31A1B0151
:1028F00032330A4AA2FB03235B099BB203F00F03A6
:102900009BB223449BB21A46D7F8FC309A6000BFB2
:1029100007F58077BD46BDE8B08F00BF1F85EB513E
:1029200080B483B000AF78607B681B6803F040031D
:10293000402B0CBF01230023DBB218460C37BD46E9
:102940005DF8047B704780B483B000AF78607B682B
:102950001B6803F08003802B0CBF01230023DBB234
:1029600018460C37BD465DF8047B704780B483B0D1
:1029700000AF78600B46FB70FA787B685A6000BF46
:102980000C37BD465DF8047B7047000080B485B00D
:1029900000AF7860084B1A6B07497B6813430B63E1
:1029A000054B1A6B7B681340FB60FB6800BF143754
:1029B000BD465DF8047B70470038024080B485B0A6
:1029C00000AF7860084B1A6C07497B6813430B64AF
:1029D000054B1A6C7B681340FB60FB6800BF143723
:1029E000BD465DF8047B70470038024090B585B065
:1029F00000AF3C4684E80F003B681846FFF7C6FF6F
:102A00007B68B96802221846FFF733FCBB68FF2BCE
:102A100006D87B68B968FA681846FFF767FC05E0D6
:102A20007B68B968FA681846FFF79DFC00BF143749
:102A3000BD4690BD80B584B000AF3B1D83E8070064
:102A40007B681846FFF7BAFFBB6808211846FFF7F6
:102A5000D9FCBB6800211846FFF7FAFCBB680021CF
:102A60001846FFF708FDBB6800211846FFF716FD62
:102A7000B868094B1B685908FB680022FFF722FD64
:102A8000BB681846FFF7AEFCBB68044A136000BF82
:102A90001037BD4680BD00BF5C000020C80100208B
:102AA00080B582B000AF0346FB7100BF0D4B1B68C1
:102AB0001846FFF735FF0346002BF7D000BF094B40
:102AC0001B681846FFF73FFF0346002BF7D0054B66
:102AD0001B68FA7911461846FFF748FF00BF083710
:102AE000BD4680BDC801002084B080B500AF07F1AD
:102AF000080C8CE80F0007F108030FCBFFF776FFF7
:102B000007F1180393E80700FFF794FF00BFBD46E5
:102B1000BDE8804004B0704780B586B000AFF86073
:102B2000B9607A600023FB750BE0FB7DBA68134443
:102B30001B78BB75BB7D1846FFF7B2FFFB7D0133E9
:102B4000FB75FB7D7A689A42EFDC7B681846183784
:102B5000BD4680BD80B400AF00BFBD465DF8047BBC
:102B600070470000F0B589B008AF094E6D4606F118
:102B700010040FCC0FC594E80F0085E80F0096E80D
:102B80000F0000F007F800BF0437BD46F0BD00BFDE
:102B9000A42D000884B0B0B400AF07F10C0484E8A1
:102BA0000F00084B1D4607F10C040FCC0FC50FCCCE
:102BB0000FC594E80F0085E80F0000BFBD46B0BC0C
:102BC00004B07047CC01002080B400AF064BD3F8AE
:102BD0008830054A43F47003C2F8883000BFBD4610
:102BE0005DF8047B704700BF00ED00E080B487B063
:102BF00000AF00233B6100237B610223FB600023C5
:102C0000BB6002237B60344B9B6803F00C033B6189
:102C10003B69082B11D03B69082B44D83B69002B3A
:102C200003D03B69042B04D03DE02C4B2C4A1A60A6
:102C30003DE02A4B2B4A1A6039E0274B5B689B0D1D
:102C400003F00103BB60244B5B6803F03F037B6030
:102C5000BB68002B0CD0234A7B68B2FBF3F31E4AFF
:102C600052689209C2F3080202FB03F37B610BE096
:102C70001B4A7B68B2FBF3F3174A52689209C2F30E
:102C8000080202FB03F37B61134B5B681B0C03F030
:102C9000030301335B00FB607A69FB68B2FBF3F36B
:102CA0000E4A136003E00D4B0D4A1A6000BF0A4B39
:102CB0009B681B0903F00F030B4AD35C3B61074B76
:102CC0001A683B6922FA03F3044A136000BF1C37F9
:102CD000BD465DF8047B7047003802405C00002070
:102CE0000024F40040787D01D42D0008DFF834D0B2
:102CF000FFF76AFF0C480D490D4A002302E0D45843
:102D0000C4500433C4188C42F9D30A4A0A4C002335
:102D100001E013600432A242FBD3FDF7FDFBFFF795
:102D2000E1F8704700000220000000206000002051
:102D3000302E000860000020FC010020FEE70000AB
:102D4000F8B500BFF8BC08BC9E467047F8B500BF98
:082D5000F8BC08BC9E46704768
:102D580048656C6C6F20576F726C64210A0D000017
:102D680000C00000030000001000000090010000F7
:102D7800000001000000000000100000000000003A
:102D880001000000000002400400000007000000ED
:102D9800000002000044004000C20100552B00085A
:102DA800552B000800000000000000000000000093
:102DB800000000000000000000000000000000000B
:102DC80000000000000000000000000000000000FB
:102DD800000000000102030406070809232D302B18
:102DE80020000000686C4C00656667454647000097
:102DF8003031323334353637383941424344454629
:102E080000000000303132333435363738396162EA
:082E1800636465660000000020
:082E200038D4FF7F010000001F
:042E28000902000893
:042E2C00E1010008B8
:102E300004000020000000007C000020E4000020CE
:102E40004C01002000000000000000000000000015
:102E50000000000000000000000000000000000072
:102E60000000000000000000000000000000000062
:102E70000000000000000000000000000000000052
:102E800000000000030000007C0000200024F4008B
:0400000508002CEDD6
:00000001FF
